:100000000C9434000C943E000C943E000C943E0082
:100010000C943E000C943E000C943E000C943E0068
:100020000C943E000C943E000C943E000C943E0058
:100030000C943E000C943E000C943E000C943E0048
:100040000C943E000C943E000C943E000C943E0038
:100050000C943E000C943E000C943E000C943E0028
:100060000C943E000C943E0011241FBECFEFD8E04C
:10007000DEBFCDBF0E9440000C9458000C940000DD
:1000800084E08AB91BB82FEF81EE94E021508040C4
:100090009040E1F700C0000084E08BB92FEF81EEC3
:1000A00094E0215080409040E1F700C00000EACF8A
:0400B000F894FFCFF2
:00000001FF
