S0170000616C7465725F6C65645F626C696E6B2E73726563F2
S11300000C9434000C943E000C943E000C943E007E
S11300100C943E000C943E000C943E000C943E0064
S11300200C943E000C943E000C943E000C943E0054
S11300300C943E000C943E000C943E000C943E0044
S11300400C943E000C943E000C943E000C943E0034
S11300500C943E000C943E000C943E000C943E0024
S11300600C943E000C943E0011241FBECFEFD8E048
S1130070DEBFCDBF0E9440000C9459000C940000D8
S11300808FEF8AB985E58BB92FEF8DE399E4215081
S113009080409040E1F700C000008AEA8BB92FEF5E
S11300A08DE399E4215080409040E1F700C00000C6
S10900B0E9CFF894FFCF34
S9030000FC
