S01400005472616669635F6C696768742E7372656340
S11300000C9434000C943E000C943E000C943E007E
S11300100C943E000C943E000C943E000C943E0064
S11300200C943E000C943E000C943E000C943E0054
S11300300C943E000C943E000C943E000C943E0044
S11300400C943E000C943E000C943E000C943E0034
S11300500C943E000C943E000C943E000C943E0024
S11300600C943E000C943E0011241FBECFEFD8E048
S1130070DEBFCDBF0E9455000C947A000C940000A2
S11300808BB181608BB98BB18B7F8BB908958BB1A8
S113009084608BB98BB18D7F8BB908958BB18260ED
S11300A08BB98BB18E7F8BB908958AB187608AB979
S11300B00E9440002FEF83E294EF21508040904053
S11300C0E1F700C000000E944E002FEF87EA91E69E
S11300D0215080409040E1F700C000000E9447009A
S11300E02FEF83E294EF215080409040E1F700C06D
S10B00F00000DECFF894FFCFFD
S9030000FC
